{
  "errors": [
    {
      "error": "Error validating generated transaction: Output exceeds max money value."
    }
  ],
  "tx": {
    "block_height": -1,
    "block_index": -1,
    "hash": "81951d596a48c3c55c37c21d72b1b6ac4cca8ec911f78cb54578a0eb952a67df",
    "addresses": [
      "1Q7cNBHyxzXBG8RGEmZy3vxjTYGEGm31dN",
      "1b7i8JaETa8eXAYPHsDycmYWLb8BLeeg9"
    ],
    "total": 18446744073709534816,
    "fees": 0,
    "size": 85,
    "preference": "low",
    "relayed_by": "82.192.38.78",
    "received": "2016-07-14T20:57:12.130554061Z",
    "ver": 1,
    "lock_time": 0,
    "double_spend": false,
    "vin_sz": 1,
    "vout_sz": 1,
    "confirmations": 0,
    "inputs": [
      {
        "prev_hash": "5b253ae8aebd6d8fa712f55d1e22c4f1efb28d2be2bb399f5a78cd66ae238a8e",
        "output_index": 0,
        "script": "",
        "output_value": 1000,
        "sequence": 4294967295,
        "addresses": [
          "1b7i8JaETa8eXAYPHsDycmYWLb8BLeeg9"
        ],
        "script_type": ""
      }
    ],
    "outputs": [
      {
        "value": -16800,
        "script": "76a914fd8ae8fda5827b9b47a65109522beb9c7e21ceab88ac",
        "addresses": [
          "1Q7cNBHyxzXBG8RGEmZy3vxjTYGEGm31dN"
        ],
        "script_type": "pay-to-pubkey-hash"
      }
    ]
  },
  "tosign_tx": [
    "01000000018e8a23ae66cd785a9f39bbe22b8db2eff1c4221e5df512a78f6dbdaee83a255b000000001976a9140673be3ef7fb6852ab2dcb3bd2384bfae051223488acffffffff0160beffffffffffff1976a914fd8ae8fda5827b9b47a65109522beb9c7e21ceab88ac0000000001000000"
  ],
  "tosign": [
    "6c0f787ddc077c7d2932874e5450c87f64bc3c34e8a77b8384a66e0eeea2c445"
  ]
}
